{
  "contractName": "StakingpoolV1",
  "abi": [
    {
      "anonymous": false,
      "inputs": [
        {
          "indexed": false,
          "internalType": "address",
          "name": "sender",
          "type": "address"
        },
        {
          "indexed": false,
          "internalType": "uint256",
          "name": "amount",
          "type": "uint256"
        }
      ],
      "name": "NotifyStaked",
      "type": "event"
    },
    {
      "anonymous": false,
      "inputs": [
        {
          "indexed": false,
          "internalType": "address",
          "name": "sender",
          "type": "address"
        },
        {
          "indexed": false,
          "internalType": "uint256",
          "name": "amount",
          "type": "uint256"
        }
      ],
      "name": "NotifyUnStaked",
      "type": "event"
    },
    {
      "anonymous": false,
      "inputs": [
        {
          "indexed": false,
          "internalType": "address",
          "name": "sender",
          "type": "address"
        },
        {
          "indexed": false,
          "internalType": "uint256",
          "name": "Balance",
          "type": "uint256"
        }
      ],
      "name": "Notifyclaimed",
      "type": "event"
    },
    {
      "anonymous": false,
      "inputs": [
        {
          "indexed": false,
          "internalType": "address",
          "name": "account",
          "type": "address"
        }
      ],
      "name": "Paused",
      "type": "event"
    },
    {
      "anonymous": false,
      "inputs": [
        {
          "indexed": false,
          "internalType": "address",
          "name": "account",
          "type": "address"
        }
      ],
      "name": "Unpaused",
      "type": "event"
    },
    {
      "inputs": [
        {
          "internalType": "address",
          "name": "",
          "type": "address"
        }
      ],
      "name": "DROI",
      "outputs": [
        {
          "internalType": "uint256",
          "name": "",
          "type": "uint256"
        }
      ],
      "stateMutability": "view",
      "type": "function",
      "constant": true
    },
    {
      "inputs": [],
      "name": "MCF",
      "outputs": [
        {
          "internalType": "uint256",
          "name": "",
          "type": "uint256"
        }
      ],
      "stateMutability": "view",
      "type": "function",
      "constant": true
    },
    {
      "inputs": [],
      "name": "MCH",
      "outputs": [
        {
          "internalType": "uint256",
          "name": "",
          "type": "uint256"
        }
      ],
      "stateMutability": "view",
      "type": "function",
      "constant": true
    },
    {
      "inputs": [
        {
          "internalType": "address",
          "name": "",
          "type": "address"
        }
      ],
      "name": "MROI",
      "outputs": [
        {
          "internalType": "uint256",
          "name": "",
          "type": "uint256"
        }
      ],
      "stateMutability": "view",
      "type": "function",
      "constant": true
    },
    {
      "inputs": [
        {
          "internalType": "address",
          "name": "",
          "type": "address"
        }
      ],
      "name": "ROI",
      "outputs": [
        {
          "internalType": "uint256",
          "name": "",
          "type": "uint256"
        }
      ],
      "stateMutability": "view",
      "type": "function",
      "constant": true
    },
    {
      "inputs": [],
      "name": "StakePeriod",
      "outputs": [
        {
          "internalType": "uint256",
          "name": "",
          "type": "uint256"
        }
      ],
      "stateMutability": "view",
      "type": "function",
      "constant": true
    },
    {
      "inputs": [
        {
          "internalType": "address",
          "name": "",
          "type": "address"
        }
      ],
      "name": "claimable",
      "outputs": [
        {
          "internalType": "uint256",
          "name": "",
          "type": "uint256"
        }
      ],
      "stateMutability": "view",
      "type": "function",
      "constant": true
    },
    {
      "inputs": [
        {
          "internalType": "address",
          "name": "",
          "type": "address"
        }
      ],
      "name": "currentstakeyields",
      "outputs": [
        {
          "internalType": "uint256",
          "name": "",
          "type": "uint256"
        }
      ],
      "stateMutability": "view",
      "type": "function",
      "constant": true
    },
    {
      "inputs": [],
      "name": "paused",
      "outputs": [
        {
          "internalType": "bool",
          "name": "",
          "type": "bool"
        }
      ],
      "stateMutability": "view",
      "type": "function",
      "constant": true
    },
    {
      "inputs": [
        {
          "internalType": "address",
          "name": "",
          "type": "address"
        }
      ],
      "name": "stakedBalances",
      "outputs": [
        {
          "internalType": "uint256",
          "name": "",
          "type": "uint256"
        }
      ],
      "stateMutability": "view",
      "type": "function",
      "constant": true
    },
    {
      "inputs": [
        {
          "internalType": "address",
          "name": "",
          "type": "address"
        }
      ],
      "name": "stakedShares",
      "outputs": [
        {
          "internalType": "uint256",
          "name": "",
          "type": "uint256"
        }
      ],
      "stateMutability": "view",
      "type": "function",
      "constant": true
    },
    {
      "inputs": [],
      "name": "totalStakedMcH",
      "outputs": [
        {
          "internalType": "uint256",
          "name": "",
          "type": "uint256"
        }
      ],
      "stateMutability": "view",
      "type": "function",
      "constant": true
    },
    {
      "inputs": [],
      "name": "totalStakedamount",
      "outputs": [
        {
          "internalType": "uint256",
          "name": "",
          "type": "uint256"
        }
      ],
      "stateMutability": "view",
      "type": "function",
      "constant": true
    },
    {
      "inputs": [
        {
          "internalType": "uint256",
          "name": "",
          "type": "uint256"
        }
      ],
      "name": "users",
      "outputs": [
        {
          "internalType": "address",
          "name": "",
          "type": "address"
        }
      ],
      "stateMutability": "view",
      "type": "function",
      "constant": true
    },
    {
      "inputs": [
        {
          "internalType": "address",
          "name": "",
          "type": "address"
        }
      ],
      "name": "vested",
      "outputs": [
        {
          "internalType": "uint256",
          "name": "",
          "type": "uint256"
        }
      ],
      "stateMutability": "view",
      "type": "function",
      "constant": true
    },
    {
      "inputs": [
        {
          "internalType": "uint256",
          "name": "_x",
          "type": "uint256"
        }
      ],
      "name": "initialize",
      "outputs": [],
      "stateMutability": "nonpayable",
      "type": "function"
    },
    {
      "inputs": [
        {
          "internalType": "uint256",
          "name": "amount",
          "type": "uint256"
        }
      ],
      "name": "Approvestake",
      "outputs": [],
      "stateMutability": "nonpayable",
      "type": "function"
    }
  ],
  "bytecode": "0x608060405234801561001057600080fd5b50610735806100206000396000f3fe608060405234801561001057600080fd5b506004361061010b5760003560e01c80635c975abb116100a257806380ededfa1161007157806380ededfa146101fa578063ce4483f914610202578063cfa6d6e314610215578063e893a8a11461021d578063fe4b84df146102305761010b565b80635c975abb146101b757806367719223146101cc5780637102b728146101df578063789982c0146101f25761010b565b80632bb4cb88116100de5780632bb4cb8814610174578063365b98b21461017c578063402914f51461019c57806352a342a4146101af5761010b565b8063091b63c1146101105780630eb0c8f31461012557806313677f941461014e5780631460fa8714610161575b600080fd5b61012361011e3660046105e7565b610243565b005b6101386101333660046105c0565b6103ba565b6040516101459190610689565b60405180910390f35b61013861015c3660046105c0565b6103cc565b61013861016f3660046105c0565b6103de565b6101386103f0565b61018f61018a3660046105e7565b6103f6565b60405161014591906105ff565b6101386101aa3660046105c0565b610420565b610138610432565b6101bf610438565b604051610145919061062c565b6101386101da3660046105c0565b610441565b6101386101ed3660046105c0565b610453565b610138610465565b61013861046b565b6101386102103660046105c0565b610471565b610138610483565b61013861022b3660046105c0565b610489565b61012361023e3660046105e7565b61049b565b61024b610438565b156102715760405162461bcd60e51b815260040161026890610637565b60405180910390fd5b600081116102915760405162461bcd60e51b815260040161026890610661565b336000908152609a60205260409020546102ab90826104b7565b336000908152609a6020526040812091909155609c546102f0906102cf90846104b7565b336000908152609a60205260409020546102ea9060646104ca565b906104d6565b336000908152609b602052604090205490915061030d90826104b7565b336000908152609b602090815260408083209390935560a99052205460ff1661034c57610339336104e2565b33600090815260a7602052604090204290555b33600081815260aa602090815260408083208054600160ff19918216811790925560a99093529281902080549092169092179055517fc56736dcf0d4f5e82a639a9147b6843027755e445f6c6379e64fafaf677fc95f916103ae918590610613565b60405180910390a15050565b609b6020526000908152604090205481565b60a26020526000908152604090205481565b609a6020526000908152604090205481565b609e5481565b60a5818154811061040657600080fd5b6000918252602090912001546001600160a01b0316905081565b60a36020526000908152604090205481565b609f5481565b60655460ff1690565b60996020526000908152604090205481565b60a46020526000908152604090205481565b609c5481565b60975481565b60a16020526000908152604090205481565b609d5481565b60a06020526000908152604090205481565b50609880546001600160a01b03191633179055620e8080609755565b60006104c38284610692565b9392505050565b60006104c382846106ca565b60006104c382846106aa565b60006104ed82610545565b509050806105415760a580546001810182556000919091527fb29a2b3b6f2ff1b765777a231725941da5072cc4fcc30ac4a2ce09706e8ddeff0180546001600160a01b0319166001600160a01b0384161790555b5050565b60008060005b60a5548110156105b25760a5818154811061057657634e487b7160e01b600052603260045260246000fd5b6000918252602090912001546001600160a01b03858116911614156105a0576001925090506105bb565b6105ab600182610692565b905061054b565b50600080915091505b915091565b6000602082840312156105d1578081fd5b81356001600160a01b03811681146104c3578182fd5b6000602082840312156105f8578081fd5b5035919050565b6001600160a01b0391909116815260200190565b6001600160a01b03929092168252602082015260400190565b901515815260200190565b60208082526010908201526f14185d5cd8589b194e881c185d5cd95960821b604082015260600190565b6020808252600e908201526d63616e6e6f74206265207a65726f60901b604082015260600190565b90815260200190565b600082198211156106a5576106a56106e9565b500190565b6000826106c557634e487b7160e01b81526012600452602481fd5b500490565b60008160001904831182151516156106e4576106e46106e9565b500290565b634e487b7160e01b600052601160045260246000fdfea2646970667358221220d43d0579a69c50f1aa94fcdae4b79528b1741abb7344e72823268d91ce22aa8864736f6c63430008000033",
  "immutableReferences": {},
  "source": "// SPDX-License-Identifier: GPL-3.0\r\npragma solidity ^0.8.0;\r\n\r\nimport \"@openzeppelin/contracts-upgradeable/utils/math/SafeMathUpgradeable.sol\";\r\nimport \"@openzeppelin/contracts-upgradeable/security/PausableUpgradeable.sol\";\r\nimport \"@openzeppelin/contracts-upgradeable/token/ERC20/IERC20Upgradeable.sol\";\r\nimport \"@openzeppelin/contracts-upgradeable/security/ReentrancyGuardUpgradeable.sol\";\r\nimport \"@openzeppelin/contracts-upgradeable/access/OwnableUpgradeable.sol\";\r\nimport \"@openzeppelin/contracts-upgradeable/utils/ContextUpgradeable.sol\";\r\nimport \"@openzeppelin/contracts-upgradeable/proxy/utils/Initializable.sol\";\r\n\r\n/* @title Staking Pool Contract\r\n * Open Zeppelin Pausable  */\r\n\r\ncontract StakingpoolV1 is Initializable, ContextUpgradeable, ReentrancyGuardUpgradeable, PausableUpgradeable {\r\n  \r\n  using SafeMathUpgradeable for uint;\r\n  \r\n  uint public StakePeriod;\r\n  \r\n  address private owner;\r\n\r\n  //IERC20 public MCHToken;\r\n  //IERC20 public MCFToken;\r\n  \r\n  \r\n /** @dev track total current stake yields of a user */\r\n   mapping(address => uint) public currentstakeyields;\r\n   \r\n   /* @dev track Stakedbalances of user*/\r\n  mapping(address => uint) public stakedBalances;\r\n  \r\n  /** @dev track StakedShares of user */\r\n  mapping(address => uint) public stakedShares;\r\n  \r\n  /** @dev track total staked amount of tokens of all users */\r\n  uint public totalStakedMcH;\r\n  \r\n  /** @dev track MCH value */\r\n  uint public MCH;\r\n  \r\n  /** @dev track MCF value */\r\n  uint public MCF;\r\n  \r\n  /** @dev track total staked value of all users */\r\n  uint public totalStakedamount;\r\n  \r\n /** @dev track Daily Rate of Investment */\r\n mapping(address => uint) public DROI;\r\n  \r\n /** @dev track Monthly Rate of Investment */\r\n  mapping(address => uint) public MROI;\r\n  \r\n /** @dev track Annual Rate of Investment */ \r\n  mapping(address => uint) public ROI;\r\n  \r\n  /** @dev track claimable tokens */ \r\n  mapping(address => uint) public claimable;\r\n  \r\n  /** @dev track vested tokens */  \r\n  mapping(address => uint) public vested;\r\n  \r\n   /** @dev track users\r\n    * users must be tracked in this array because mapping is not iterable */\r\n  address[] public users;\r\n  \r\n   /** @dev track index by address added to users */\r\n  mapping(address => uint) private userIndex;\r\n  \r\n    /** @dev track stake time of users */\r\n  mapping(address => uint) internal creationTime;\r\n  \r\n    /** @dev track whether users has completed stake period */\r\n  mapping(address => bool) isFinalized;\r\n  \r\n    /** @dev track staked status of users */\r\n  mapping(address => bool) Staked;\r\n  \r\n   /** @dev track staking status of users */\r\n  mapping(address => bool) isStaking;\r\n \r\n /** @dev trigger notification of staked amount\r\n    * @param sender       msg.sender for the transaction\r\n    * @param amount       msg.value for the transaction\r\n    */\r\n  event NotifyStaked(address sender, uint amount);\r\n  \r\n  /** @dev trigger notification of unstaked amount\r\n    * @param sender       msg.sender for the transaction\r\n    * @param amount       msg.value for the transaction\r\n    */\r\n  event NotifyUnStaked(address sender, uint amount);\r\n\r\n\r\n  // @dev trigger notification of claimed amount\r\n  event Notifyclaimed(address sender,uint Balance);\r\n  \r\n  // modifiers\r\n \r\n  modifier onlyOwner {\r\n        require(\r\n            msg.sender == owner,\r\n            \"Only owner can call this function.\"\r\n        );\r\n        _;\r\n    }\r\n  \r\n     /**\r\n     * @dev Throws if called before stakingperiod\r\n     */\r\n    modifier onlyAfter() {\r\n        \r\n      require(block.timestamp >= creationTime[msg.sender].add(StakePeriod) ,\"StakePeriod not completed\");\r\n      _;\r\n   }\r\n   \r\n       function initialize(uint256 _x) public {\r\n               //MCHToken = IERC20(_MCHToken);\r\n        //MCFToken = IERC20(_MCFToken);\r\n        owner = msg.sender;\r\n        StakePeriod = 11 days;\r\n    }\r\n\r\n\r\n\r\n  /** @dev test if user is in current user list\r\n    * @param user address of user to test if in list\r\n    * @return true if user is on record, otherwise false\r\n    */\r\n  function isUser(address user) internal view\r\n       returns(bool, uint256)\r\n   {\r\n       for (uint256 i = 0; i < users.length; i += 1){\r\n           if (user == users[i]) return (true, i);\r\n       }\r\n       return (false, 0);\r\n   }\r\n    \r\n    /** @dev add a user to users array\r\n    * @param user address of user to add to the list\r\n    */\r\n  \r\n   function addUser(address user) internal\r\n   {\r\n       (bool _isUser, ) = isUser(user);\r\n       if(!_isUser) users.push(user);\r\n   }\r\n   \r\n   /** @dev remove a user from users array\r\n    * @param user address of user to remove from the list\r\n    */\r\n    \r\n   function removeUser(address user) internal\r\n   {\r\n       (bool isUser, uint256 i) = isUser(user);\r\n       if(isUser){\r\n           users[i] = users[users.length - 1];\r\n           users.pop();\r\n       }\r\n   }\r\n\r\n  \r\n   /** @dev stake funds to PoolContract\r\n    */\r\n    function Approvestake(uint amount) external whenNotPaused {\r\n     \r\n      // staking amount cannot be zero\r\n      require(amount > 0, \"cannot be zero\");\r\n    \r\n      // Transfer Mock  tokens to this contract for staking\r\n      //MCHToken.transferFrom(msg.sender, address(this), amount);\r\n      \r\n      // updating stakedBalances\r\n      stakedBalances[msg.sender] = stakedBalances[msg.sender].add(amount);\r\n      \r\n      // updating total stakedBalances\r\n      uint shares = (stakedBalances[msg.sender].mul(100)).div(totalStakedMcH.add(amount));\r\n      \r\n      // updating stakedShares\r\n      stakedShares[msg.sender] = stakedShares[msg.sender].add(shares);\r\n      \r\n      // Adding staker to users Array only if not staked early \r\n       if(!Staked[msg.sender]) {\r\n          \r\n            addUser(msg.sender);\r\n          \r\n             // storing the start stake time of user\r\n            creationTime[msg.sender] = block.timestamp;\r\n          \r\n        }  \r\n      \r\n      // updating status of the staking\r\n       isStaking[msg.sender] = true;\r\n       Staked[msg.sender] = true;\r\n       \r\n      \r\n      // triggering event \r\n      emit NotifyStaked(msg.sender, amount);\r\n   }\r\n}",
  "sourcePath": "/home/lee/github/sk8er123/mcf-stakingpool/contracts/Stakingpool.sol",
  "compiler": {
    "name": "solc",
    "version": "0.8.0+commit.c7dfd78e.Emscripten.clang"
  },
  "schemaVersion": "3.4.0",
  "updatedAt": "2021-04-24T16:30:26.353Z",
  "networkType": "ethereum",
  "devdoc": {
    "events": {
      "NotifyStaked(address,uint256)": {
        "details": "trigger notification of staked amount",
        "params": {
          "amount": "msg.value for the transaction",
          "sender": "msg.sender for the transaction"
        }
      },
      "NotifyUnStaked(address,uint256)": {
        "details": "trigger notification of unstaked amount",
        "params": {
          "amount": "msg.value for the transaction",
          "sender": "msg.sender for the transaction"
        }
      }
    },
    "kind": "dev",
    "methods": {
      "Approvestake(uint256)": {
        "details": "stake funds to PoolContract"
      },
      "paused()": {
        "details": "Returns true if the contract is paused, and false otherwise."
      }
    },
    "stateVariables": {
      "DROI": {
        "details": "track Daily Rate of Investment "
      },
      "MCF": {
        "details": "track MCF value "
      },
      "MCH": {
        "details": "track MCH value "
      },
      "MROI": {
        "details": "track Monthly Rate of Investment "
      },
      "ROI": {
        "details": "track Annual Rate of Investment "
      },
      "Staked": {
        "details": "track staked status of users "
      },
      "claimable": {
        "details": "track claimable tokens "
      },
      "creationTime": {
        "details": "track stake time of users "
      },
      "currentstakeyields": {
        "details": "track total current stake yields of a user "
      },
      "isFinalized": {
        "details": "track whether users has completed stake period "
      },
      "isStaking": {
        "details": "track staking status of users "
      },
      "stakedShares": {
        "details": "track StakedShares of user "
      },
      "totalStakedMcH": {
        "details": "track total staked amount of tokens of all users "
      },
      "totalStakedamount": {
        "details": "track total staked value of all users "
      },
      "userIndex": {
        "details": "track index by address added to users "
      },
      "users": {
        "details": "track users users must be tracked in this array because mapping is not iterable "
      },
      "vested": {
        "details": "track vested tokens "
      }
    },
    "version": 1
  },
  "userdoc": {
    "kind": "user",
    "methods": {},
    "version": 1
  }
}