{
  "contractName": "Stakingpool",
  "abi": [
    {
      "anonymous": false,
      "inputs": [
        {
          "indexed": false,
          "internalType": "address",
          "name": "sender",
          "type": "address"
        },
        {
          "indexed": false,
          "internalType": "uint256",
          "name": "amount",
          "type": "uint256"
        }
      ],
      "name": "NotifyStaked",
      "type": "event"
    },
    {
      "anonymous": false,
      "inputs": [
        {
          "indexed": false,
          "internalType": "address",
          "name": "sender",
          "type": "address"
        },
        {
          "indexed": false,
          "internalType": "uint256",
          "name": "amount",
          "type": "uint256"
        }
      ],
      "name": "NotifyUnStaked",
      "type": "event"
    },
    {
      "anonymous": false,
      "inputs": [
        {
          "indexed": false,
          "internalType": "address",
          "name": "sender",
          "type": "address"
        },
        {
          "indexed": false,
          "internalType": "uint256",
          "name": "Balance",
          "type": "uint256"
        }
      ],
      "name": "Notifyclaimed",
      "type": "event"
    },
    {
      "anonymous": false,
      "inputs": [
        {
          "indexed": true,
          "internalType": "address",
          "name": "previousOwner",
          "type": "address"
        },
        {
          "indexed": true,
          "internalType": "address",
          "name": "newOwner",
          "type": "address"
        }
      ],
      "name": "OwnershipTransferred",
      "type": "event"
    },
    {
      "anonymous": false,
      "inputs": [
        {
          "indexed": false,
          "internalType": "address",
          "name": "account",
          "type": "address"
        }
      ],
      "name": "Paused",
      "type": "event"
    },
    {
      "anonymous": false,
      "inputs": [
        {
          "indexed": false,
          "internalType": "address",
          "name": "account",
          "type": "address"
        }
      ],
      "name": "Unpaused",
      "type": "event"
    },
    {
      "inputs": [
        {
          "internalType": "address",
          "name": "",
          "type": "address"
        }
      ],
      "name": "DROI",
      "outputs": [
        {
          "internalType": "uint256",
          "name": "",
          "type": "uint256"
        }
      ],
      "stateMutability": "view",
      "type": "function",
      "constant": true
    },
    {
      "inputs": [],
      "name": "MCF",
      "outputs": [
        {
          "internalType": "uint256",
          "name": "",
          "type": "uint256"
        }
      ],
      "stateMutability": "view",
      "type": "function",
      "constant": true
    },
    {
      "inputs": [],
      "name": "MCFToken",
      "outputs": [
        {
          "internalType": "contract IERC20Upgradeable",
          "name": "",
          "type": "address"
        }
      ],
      "stateMutability": "view",
      "type": "function",
      "constant": true
    },
    {
      "inputs": [],
      "name": "MCH",
      "outputs": [
        {
          "internalType": "uint256",
          "name": "",
          "type": "uint256"
        }
      ],
      "stateMutability": "view",
      "type": "function",
      "constant": true
    },
    {
      "inputs": [],
      "name": "MCHToken",
      "outputs": [
        {
          "internalType": "contract IERC20Upgradeable",
          "name": "",
          "type": "address"
        }
      ],
      "stateMutability": "view",
      "type": "function",
      "constant": true
    },
    {
      "inputs": [
        {
          "internalType": "address",
          "name": "",
          "type": "address"
        }
      ],
      "name": "MROI",
      "outputs": [
        {
          "internalType": "uint256",
          "name": "",
          "type": "uint256"
        }
      ],
      "stateMutability": "view",
      "type": "function",
      "constant": true
    },
    {
      "inputs": [
        {
          "internalType": "address",
          "name": "",
          "type": "address"
        }
      ],
      "name": "ROI",
      "outputs": [
        {
          "internalType": "uint256",
          "name": "",
          "type": "uint256"
        }
      ],
      "stateMutability": "view",
      "type": "function",
      "constant": true
    },
    {
      "inputs": [
        {
          "internalType": "address",
          "name": "",
          "type": "address"
        }
      ],
      "name": "claimable",
      "outputs": [
        {
          "internalType": "uint256",
          "name": "",
          "type": "uint256"
        }
      ],
      "stateMutability": "view",
      "type": "function",
      "constant": true
    },
    {
      "inputs": [
        {
          "internalType": "address",
          "name": "",
          "type": "address"
        }
      ],
      "name": "currentstakeyields",
      "outputs": [
        {
          "internalType": "uint256",
          "name": "",
          "type": "uint256"
        }
      ],
      "stateMutability": "view",
      "type": "function",
      "constant": true
    },
    {
      "inputs": [],
      "name": "owner",
      "outputs": [
        {
          "internalType": "address",
          "name": "",
          "type": "address"
        }
      ],
      "stateMutability": "view",
      "type": "function",
      "constant": true
    },
    {
      "inputs": [],
      "name": "paused",
      "outputs": [
        {
          "internalType": "bool",
          "name": "",
          "type": "bool"
        }
      ],
      "stateMutability": "view",
      "type": "function",
      "constant": true
    },
    {
      "inputs": [],
      "name": "renounceOwnership",
      "outputs": [],
      "stateMutability": "nonpayable",
      "type": "function"
    },
    {
      "inputs": [
        {
          "internalType": "address",
          "name": "",
          "type": "address"
        }
      ],
      "name": "stakedBalances",
      "outputs": [
        {
          "internalType": "uint256",
          "name": "",
          "type": "uint256"
        }
      ],
      "stateMutability": "view",
      "type": "function",
      "constant": true
    },
    {
      "inputs": [
        {
          "internalType": "address",
          "name": "",
          "type": "address"
        }
      ],
      "name": "stakedShares",
      "outputs": [
        {
          "internalType": "uint256",
          "name": "",
          "type": "uint256"
        }
      ],
      "stateMutability": "view",
      "type": "function",
      "constant": true
    },
    {
      "inputs": [],
      "name": "totalStakedMcH",
      "outputs": [
        {
          "internalType": "uint256",
          "name": "",
          "type": "uint256"
        }
      ],
      "stateMutability": "view",
      "type": "function",
      "constant": true
    },
    {
      "inputs": [],
      "name": "totalStakedamount",
      "outputs": [
        {
          "internalType": "uint256",
          "name": "",
          "type": "uint256"
        }
      ],
      "stateMutability": "view",
      "type": "function",
      "constant": true
    },
    {
      "inputs": [
        {
          "internalType": "address",
          "name": "newOwner",
          "type": "address"
        }
      ],
      "name": "transferOwnership",
      "outputs": [],
      "stateMutability": "nonpayable",
      "type": "function"
    },
    {
      "inputs": [
        {
          "internalType": "uint256",
          "name": "",
          "type": "uint256"
        }
      ],
      "name": "users",
      "outputs": [
        {
          "internalType": "address",
          "name": "",
          "type": "address"
        }
      ],
      "stateMutability": "view",
      "type": "function",
      "constant": true
    },
    {
      "inputs": [
        {
          "internalType": "address",
          "name": "",
          "type": "address"
        }
      ],
      "name": "vested",
      "outputs": [
        {
          "internalType": "uint256",
          "name": "",
          "type": "uint256"
        }
      ],
      "stateMutability": "view",
      "type": "function",
      "constant": true
    },
    {
      "inputs": [
        {
          "internalType": "address",
          "name": "_MCHToken",
          "type": "address"
        },
        {
          "internalType": "address",
          "name": "_MCFToken",
          "type": "address"
        }
      ],
      "name": "initialize",
      "outputs": [],
      "stateMutability": "nonpayable",
      "type": "function"
    },
    {
      "inputs": [
        {
          "internalType": "address",
          "name": "user",
          "type": "address"
        }
      ],
      "name": "showBlackUser",
      "outputs": [
        {
          "internalType": "bool",
          "name": "",
          "type": "bool"
        }
      ],
      "stateMutability": "view",
      "type": "function",
      "constant": true
    },
    {
      "inputs": [
        {
          "internalType": "address",
          "name": "user",
          "type": "address"
        }
      ],
      "name": "addToBlackList",
      "outputs": [],
      "stateMutability": "nonpayable",
      "type": "function"
    },
    {
      "inputs": [
        {
          "internalType": "address",
          "name": "user",
          "type": "address"
        }
      ],
      "name": "removeFromBlackList",
      "outputs": [],
      "stateMutability": "nonpayable",
      "type": "function"
    },
    {
      "inputs": [
        {
          "internalType": "uint256",
          "name": "amount",
          "type": "uint256"
        }
      ],
      "name": "Approvestake",
      "outputs": [],
      "stateMutability": "nonpayable",
      "type": "function"
    }
  ],
  "bytecode": "0x608060405234801561001057600080fd5b50610c1d806100206000396000f3fe608060405234801561001057600080fd5b50600436106101585760003560e01c80635c975abb116100c35780638da5cb5b1161007c5780638da5cb5b14610298578063c18ef574146102a0578063ce4483f9146102b3578063cfa6d6e3146102c6578063e893a8a1146102ce578063f2fde38b146102e157610158565b80635c975abb14610245578063677192231461025a5780637102b7281461026d578063715018a614610280578063789982c0146102885780637c5d5ad21461029057610158565b8063365b98b211610115578063365b98b2146101de578063402914f5146101f1578063417c73a714610204578063485cc955146102175780634a49ac4c1461022a57806352a342a41461023d57610158565b8063091b63c11461015d5780630eb0c8f31461017257806313677f941461019b5780631460fa87146101ae57806325d8dda5146101c15780632bb4cb88146101d6575b600080fd5b61017061016b366004610a30565b6102f4565b005b6101856101803660046109c4565b6104f2565b6040516101929190610b71565b60405180910390f35b6101856101a93660046109c4565b610504565b6101856101bc3660046109c4565b610516565b6101c9610528565b6040516101929190610a48565b610185610537565b6101c96101ec366004610a30565b61053d565b6101856101ff3660046109c4565b610567565b6101706102123660046109c4565b610579565b6101706102253660046109de565b6105dc565b6101706102383660046109c4565b610611565b610185610671565b61024d610677565b6040516101929190610a99565b6101856102683660046109c4565b610680565b61018561027b3660046109c4565b610692565b6101706106a4565b61018561072d565b6101c9610733565b6101c9610742565b61024d6102ae3660046109c4565b610751565b6101856102c13660046109c4565b6107b5565b6101856107c7565b6101856102dc3660046109c4565b6107cd565b6101706102ef3660046109c4565b6107df565b6102fc610677565b156103225760405162461bcd60e51b815260040161031990610aea565b60405180910390fd5b600081116103425760405162461bcd60e51b815260040161031990610b14565b60ca546040516323b872dd60e01b81526001600160a01b03909116906323b872dd9061037690339030908690600401610a5c565b602060405180830381600087803b15801561039057600080fd5b505af11580156103a4573d6000803e3d6000fd5b505050506040513d601f19601f820116820180604052508101906103c89190610a10565b5033600090815260cd60205260409020546103e390826108a0565b33600090815260cd602052604081209190915560cf546104289061040790846108a0565b33600090815260cd60205260409020546104229060646108b3565b906108bf565b33600090815260ce602052604090205490915061044590826108a0565b33600090815260ce602090815260408083209390935560dd9052205460ff1661048457610471336108cb565b33600090815260db602052604090204290555b33600081815260de602090815260408083208054600160ff19918216811790925560dd9093529281902080549092169092179055517fc56736dcf0d4f5e82a639a9147b6843027755e445f6c6379e64fafaf677fc95f916104e6918590610a80565b60405180910390a15050565b60ce6020526000908152604090205481565b60d56020526000908152604090205481565b60cd6020526000908152604090205481565b60ca546001600160a01b031681565b60d15481565b60d8818154811061054d57600080fd5b6000918252602090912001546001600160a01b0316905081565b60d66020526000908152604090205481565b61058161092e565b6001600160a01b0316610592610742565b6001600160a01b0316146105b85760405162461bcd60e51b815260040161031990610b3c565b6001600160a01b0316600090815260d960205260409020805460ff19166001179055565b60ca80546001600160a01b039384166001600160a01b03199182161790915560cb8054929093169116179055620e808060c955565b61061961092e565b6001600160a01b031661062a610742565b6001600160a01b0316146106505760405162461bcd60e51b815260040161031990610b3c565b6001600160a01b0316600090815260d960205260409020805460ff19169055565b60d25481565b60655460ff1690565b60cc6020526000908152604090205481565b60d76020526000908152604090205481565b6106ac61092e565b6001600160a01b03166106bd610742565b6001600160a01b0316146106e35760405162461bcd60e51b815260040161031990610b3c565b6097546040516000916001600160a01b0316907f8be0079c531659141344cd1fd0a4f28419497f9722a3daafe3b4186f6b6457e0908390a3609780546001600160a01b0319169055565b60cf5481565b60cb546001600160a01b031681565b6097546001600160a01b031690565b600061075b61092e565b6001600160a01b031661076c610742565b6001600160a01b0316146107925760405162461bcd60e51b815260040161031990610b3c565b506001600160a01b038116600090815260d9602052604090205460ff165b919050565b60d46020526000908152604090205481565b60d05481565b60d36020526000908152604090205481565b6107e761092e565b6001600160a01b03166107f8610742565b6001600160a01b03161461081e5760405162461bcd60e51b815260040161031990610b3c565b6001600160a01b0381166108445760405162461bcd60e51b815260040161031990610aa4565b6097546040516001600160a01b038084169216907f8be0079c531659141344cd1fd0a4f28419497f9722a3daafe3b4186f6b6457e090600090a3609780546001600160a01b0319166001600160a01b0392909216919091179055565b60006108ac8284610b7a565b9392505050565b60006108ac8284610bb2565b60006108ac8284610b92565b60006108d682610932565b5090508061092a5760d880546001810182556000919091527f5320ad99a619a90804cd2efe3a5cf0ac1ac5c41ad9ff2c61cf699efdad7710960180546001600160a01b0319166001600160a01b0384161790555b5050565b3390565b60008060005b60d85481101561099f5760d8818154811061096357634e487b7160e01b600052603260045260246000fd5b6000918252602090912001546001600160a01b038581169116141561098d576001925090506109a8565b610998600182610b7a565b9050610938565b50600080915091505b915091565b80356001600160a01b03811681146107b057600080fd5b6000602082840312156109d5578081fd5b6108ac826109ad565b600080604083850312156109f0578081fd5b6109f9836109ad565b9150610a07602084016109ad565b90509250929050565b600060208284031215610a21578081fd5b815180151581146108ac578182fd5b600060208284031215610a41578081fd5b5035919050565b6001600160a01b0391909116815260200190565b6001600160a01b039384168152919092166020820152604081019190915260600190565b6001600160a01b03929092168252602082015260400190565b901515815260200190565b60208082526026908201527f4f776e61626c653a206e6577206f776e657220697320746865207a65726f206160408201526564647265737360d01b606082015260800190565b60208082526010908201526f14185d5cd8589b194e881c185d5cd95960821b604082015260600190565b6020808252600e908201526d63616e6e6f74206265207a65726f60901b604082015260600190565b6020808252818101527f4f776e61626c653a2063616c6c6572206973206e6f7420746865206f776e6572604082015260600190565b90815260200190565b60008219821115610b8d57610b8d610bd1565b500190565b600082610bad57634e487b7160e01b81526012600452602481fd5b500490565b6000816000190483118215151615610bcc57610bcc610bd1565b500290565b634e487b7160e01b600052601160045260246000fdfea2646970667358221220d57d725e9879e2a0e3806a11327f95b1c70ba28ed80b71ef29ae0d201dbb097a64736f6c63430008000033",
  "immutableReferences": {},
  "source": "// SPDX-License-Identifier: GPL-3.0\npragma solidity ^0.8.0;\n\nimport \"@openzeppelin/contracts-upgradeable/utils/math/SafeMathUpgradeable.sol\";\nimport \"@openzeppelin/contracts-upgradeable/security/PausableUpgradeable.sol\";\nimport \"@openzeppelin/contracts-upgradeable/token/ERC20/IERC20Upgradeable.sol\";\nimport \"@openzeppelin/contracts-upgradeable/security/ReentrancyGuardUpgradeable.sol\";\nimport \"@openzeppelin/contracts-upgradeable/access/OwnableUpgradeable.sol\";\nimport \"@openzeppelin/contracts-upgradeable/utils/ContextUpgradeable.sol\";\nimport \"@openzeppelin/contracts-upgradeable/proxy/utils/Initializable.sol\";\n\n/* @title Staking Pool Contract\n * Open Zeppelin Pausable  */\n\ncontract Stakingpool is Initializable, ContextUpgradeable, ReentrancyGuardUpgradeable, PausableUpgradeable, OwnableUpgradeable {\n    using SafeMathUpgradeable for uint256;\n\n    uint256 StakePeriod;\n\n    IERC20Upgradeable public MCHToken;\n\n    IERC20Upgradeable public MCFToken;\n\n    /** @dev track total current stake yields of a user */\n    mapping(address => uint256) public currentstakeyields;\n\n    /* @dev track Stakedbalances of user*/\n    mapping(address => uint256) public stakedBalances;\n\n    /** @dev track StakedShares of user */\n    mapping(address => uint256) public stakedShares;\n\n    /** @dev track total staked amount of tokens of all users */\n    uint256 public totalStakedMcH;\n\n    /** @dev track MCH value */\n    uint256 public MCH;\n\n    /** @dev track MCF value */\n    uint256 public MCF;\n\n    /** @dev track total staked value of all users */\n    uint256 public totalStakedamount;\n\n    /** @dev track Daily Rate of Investment */\n    mapping(address => uint256) public DROI;\n\n    /** @dev track Monthly Rate of Investment */\n    mapping(address => uint256) public MROI;\n\n    /** @dev track Annual Rate of Investment */\n    mapping(address => uint256) public ROI;\n\n    /** @dev track claimable tokens */\n    mapping(address => uint256) public claimable;\n\n    /** @dev track vested tokens */\n    mapping(address => uint256) public vested;\n\n    /** @dev track users\n     * users must be tracked in this array because mapping is not iterable */\n    address[] public users;\n\n    /** @dev track index by address added to blacklisted */\n    mapping(address => bool) private _blackListed;\n\n    /** @dev track index by address added to users */\n    mapping(address => uint256) private userIndex;\n\n    /** @dev track stake time of users */\n    mapping(address => uint256) internal creationTime;\n\n    /** @dev track whether users has completed stake period */\n    mapping(address => bool) isFinalized;\n\n    /** @dev track staked status of users */\n    mapping(address => bool) Staked;\n\n    /** @dev track staking status of users */\n    mapping(address => bool) isStaking;\n\n    /** @dev trigger notification of staked amount\n     * @param sender       msg.sender for the transaction\n     * @param amount       msg.value for the transaction\n     */\n    event NotifyStaked(address sender, uint256 amount);\n\n    /** @dev trigger notification of unstaked amount\n     * @param sender       msg.sender for the transaction\n     * @param amount       msg.value for the transaction\n     */\n    event NotifyUnStaked(address sender, uint256 amount);\n\n    // @dev trigger notification of claimed amount\n    event Notifyclaimed(address sender, uint256 Balance);\n\n    /**\n     * @dev Throws if called before stakingperiod\n     */\n    modifier onlyAfter() {\n        require(block.timestamp >= creationTime[msg.sender].add(StakePeriod), \"StakePeriod not completed\");\n        _;\n    }\n\n    // @dev contract Initializable\n    function initialize(address _MCHToken, address _MCFToken) public {\n        MCHToken = IERC20Upgradeable(_MCHToken);\n        MCFToken = IERC20Upgradeable(_MCFToken);\n        StakePeriod = 11 days;\n    }\n\n    /** @dev test if user is in current user list\n     * @param user address of user to test if in list\n     * @return true if user is on record, otherwise false\n     */\n    function isUser(address user) internal view returns (bool, uint256) {\n        for (uint256 i = 0; i < users.length; i += 1) {\n            if (user == users[i]) return (true, i);\n        }\n        return (false, 0);\n    }\n\n    /** @dev add a user to users array\n     * @param user address of user to add to the list\n     */\n\n    function addUser(address user) internal {\n        (bool _isUser, ) = isUser(user);\n        if (!_isUser) users.push(user);\n    }\n\n    /** @dev remove a user from users array\n     * @param user address of user to remove from the list\n     */\n\n    function removeUser(address user) internal {\n        (bool _isUser, uint256 i) = isUser(user);\n        if (_isUser) {\n            users[i] = users[users.length - 1];\n            users.pop();\n        }\n    }\n\n    function showBlackUser(address user) external view onlyOwner returns (bool) {\n        return _blackListed[user];\n    }\n\n    function addToBlackList(address user) external onlyOwner {\n        _blackListed[user] = true;\n    }\n\n    function removeFromBlackList(address user) external onlyOwner {\n        _blackListed[user] = false;\n    }\n\n    /** @dev stake funds to PoolContract\n     */\n    function Approvestake(uint256 amount) external whenNotPaused {\n        // staking amount cannot be zero\n        require(amount > 0, \"cannot be zero\");\n\n        // Transfer Mock  tokens to this contract for staking\n        MCHToken.transferFrom(msg.sender, address(this), amount);\n\n        // updating stakedBalances\n        stakedBalances[msg.sender] = stakedBalances[msg.sender].add(amount);\n\n        // updating total stakedBalances\n        uint256 shares = (stakedBalances[msg.sender].mul(100)).div(totalStakedMcH.add(amount));\n\n        // updating stakedShares\n        stakedShares[msg.sender] = stakedShares[msg.sender].add(shares);\n\n        // Adding staker to users Array only if not staked early\n        if (!Staked[msg.sender]) {\n            addUser(msg.sender);\n\n            // storing the start stake time of user\n            creationTime[msg.sender] = block.timestamp;\n        }\n\n        // updating status of the staking\n        isStaking[msg.sender] = true;\n        Staked[msg.sender] = true;\n\n        // triggering event\n        emit NotifyStaked(msg.sender, amount);\n    }\n}\n",
  "sourcePath": "/home/lee/github/sk8er123/mcf-stakingpool/contracts/Stakingpool.sol",
  "compiler": {
    "name": "solc",
    "version": "0.8.0+commit.c7dfd78e.Emscripten.clang"
  },
  "schemaVersion": "3.4.0",
  "updatedAt": "2021-04-24T17:57:46.869Z",
  "networkType": "ethereum",
  "devdoc": {
    "events": {
      "NotifyStaked(address,uint256)": {
        "details": "trigger notification of staked amount",
        "params": {
          "amount": "msg.value for the transaction",
          "sender": "msg.sender for the transaction"
        }
      },
      "NotifyUnStaked(address,uint256)": {
        "details": "trigger notification of unstaked amount",
        "params": {
          "amount": "msg.value for the transaction",
          "sender": "msg.sender for the transaction"
        }
      }
    },
    "kind": "dev",
    "methods": {
      "Approvestake(uint256)": {
        "details": "stake funds to PoolContract"
      },
      "owner()": {
        "details": "Returns the address of the current owner."
      },
      "paused()": {
        "details": "Returns true if the contract is paused, and false otherwise."
      },
      "renounceOwnership()": {
        "details": "Leaves the contract without owner. It will not be possible to call `onlyOwner` functions anymore. Can only be called by the current owner. NOTE: Renouncing ownership will leave the contract without an owner, thereby removing any functionality that is only available to the owner."
      },
      "transferOwnership(address)": {
        "details": "Transfers ownership of the contract to a new account (`newOwner`). Can only be called by the current owner."
      }
    },
    "stateVariables": {
      "DROI": {
        "details": "track Daily Rate of Investment "
      },
      "MCF": {
        "details": "track MCF value "
      },
      "MCH": {
        "details": "track MCH value "
      },
      "MROI": {
        "details": "track Monthly Rate of Investment "
      },
      "ROI": {
        "details": "track Annual Rate of Investment "
      },
      "Staked": {
        "details": "track staked status of users "
      },
      "_blackListed": {
        "details": "track index by address added to blacklisted "
      },
      "claimable": {
        "details": "track claimable tokens "
      },
      "creationTime": {
        "details": "track stake time of users "
      },
      "currentstakeyields": {
        "details": "track total current stake yields of a user "
      },
      "isFinalized": {
        "details": "track whether users has completed stake period "
      },
      "isStaking": {
        "details": "track staking status of users "
      },
      "stakedShares": {
        "details": "track StakedShares of user "
      },
      "totalStakedMcH": {
        "details": "track total staked amount of tokens of all users "
      },
      "totalStakedamount": {
        "details": "track total staked value of all users "
      },
      "userIndex": {
        "details": "track index by address added to users "
      },
      "users": {
        "details": "track users users must be tracked in this array because mapping is not iterable "
      },
      "vested": {
        "details": "track vested tokens "
      }
    },
    "version": 1
  },
  "userdoc": {
    "kind": "user",
    "methods": {},
    "version": 1
  }
}