{
  "contractName": "StakingpoolV2",
  "abi": [
    {
      "anonymous": false,
      "inputs": [
        {
          "indexed": false,
          "internalType": "address",
          "name": "sender",
          "type": "address"
        },
        {
          "indexed": false,
          "internalType": "uint256",
          "name": "amount",
          "type": "uint256"
        }
      ],
      "name": "NotifyStaked",
      "type": "event"
    },
    {
      "anonymous": false,
      "inputs": [
        {
          "indexed": false,
          "internalType": "address",
          "name": "sender",
          "type": "address"
        },
        {
          "indexed": false,
          "internalType": "uint256",
          "name": "amount",
          "type": "uint256"
        }
      ],
      "name": "NotifyUnStaked",
      "type": "event"
    },
    {
      "anonymous": false,
      "inputs": [
        {
          "indexed": false,
          "internalType": "address",
          "name": "sender",
          "type": "address"
        },
        {
          "indexed": false,
          "internalType": "uint256",
          "name": "Balance",
          "type": "uint256"
        }
      ],
      "name": "Notifyclaimed",
      "type": "event"
    },
    {
      "anonymous": false,
      "inputs": [
        {
          "indexed": true,
          "internalType": "address",
          "name": "previousOwner",
          "type": "address"
        },
        {
          "indexed": true,
          "internalType": "address",
          "name": "newOwner",
          "type": "address"
        }
      ],
      "name": "OwnershipTransferred",
      "type": "event"
    },
    {
      "anonymous": false,
      "inputs": [
        {
          "indexed": false,
          "internalType": "address",
          "name": "account",
          "type": "address"
        }
      ],
      "name": "Paused",
      "type": "event"
    },
    {
      "anonymous": false,
      "inputs": [
        {
          "indexed": false,
          "internalType": "address",
          "name": "account",
          "type": "address"
        }
      ],
      "name": "Unpaused",
      "type": "event"
    },
    {
      "inputs": [
        {
          "internalType": "address",
          "name": "",
          "type": "address"
        }
      ],
      "name": "DROI",
      "outputs": [
        {
          "internalType": "uint256",
          "name": "",
          "type": "uint256"
        }
      ],
      "stateMutability": "view",
      "type": "function"
    },
    {
      "inputs": [],
      "name": "MCF",
      "outputs": [
        {
          "internalType": "uint256",
          "name": "",
          "type": "uint256"
        }
      ],
      "stateMutability": "view",
      "type": "function"
    },
    {
      "inputs": [],
      "name": "MCFToken",
      "outputs": [
        {
          "internalType": "contract IERC20Upgradeable",
          "name": "",
          "type": "address"
        }
      ],
      "stateMutability": "view",
      "type": "function"
    },
    {
      "inputs": [],
      "name": "MCH",
      "outputs": [
        {
          "internalType": "uint256",
          "name": "",
          "type": "uint256"
        }
      ],
      "stateMutability": "view",
      "type": "function"
    },
    {
      "inputs": [],
      "name": "MCHToken",
      "outputs": [
        {
          "internalType": "contract IERC20Upgradeable",
          "name": "",
          "type": "address"
        }
      ],
      "stateMutability": "view",
      "type": "function"
    },
    {
      "inputs": [
        {
          "internalType": "address",
          "name": "",
          "type": "address"
        }
      ],
      "name": "MROI",
      "outputs": [
        {
          "internalType": "uint256",
          "name": "",
          "type": "uint256"
        }
      ],
      "stateMutability": "view",
      "type": "function"
    },
    {
      "inputs": [
        {
          "internalType": "address",
          "name": "",
          "type": "address"
        }
      ],
      "name": "ROI",
      "outputs": [
        {
          "internalType": "uint256",
          "name": "",
          "type": "uint256"
        }
      ],
      "stateMutability": "view",
      "type": "function"
    },
    {
      "inputs": [
        {
          "internalType": "address",
          "name": "",
          "type": "address"
        }
      ],
      "name": "claimable",
      "outputs": [
        {
          "internalType": "uint256",
          "name": "",
          "type": "uint256"
        }
      ],
      "stateMutability": "view",
      "type": "function"
    },
    {
      "inputs": [
        {
          "internalType": "address",
          "name": "",
          "type": "address"
        }
      ],
      "name": "currentstakeyields",
      "outputs": [
        {
          "internalType": "uint256",
          "name": "",
          "type": "uint256"
        }
      ],
      "stateMutability": "view",
      "type": "function"
    },
    {
      "inputs": [],
      "name": "owner",
      "outputs": [
        {
          "internalType": "address",
          "name": "",
          "type": "address"
        }
      ],
      "stateMutability": "view",
      "type": "function"
    },
    {
      "inputs": [],
      "name": "paused",
      "outputs": [
        {
          "internalType": "bool",
          "name": "",
          "type": "bool"
        }
      ],
      "stateMutability": "view",
      "type": "function"
    },
    {
      "inputs": [],
      "name": "renounceOwnership",
      "outputs": [],
      "stateMutability": "nonpayable",
      "type": "function"
    },
    {
      "inputs": [
        {
          "internalType": "address",
          "name": "",
          "type": "address"
        }
      ],
      "name": "stakedBalances",
      "outputs": [
        {
          "internalType": "uint256",
          "name": "",
          "type": "uint256"
        }
      ],
      "stateMutability": "view",
      "type": "function"
    },
    {
      "inputs": [
        {
          "internalType": "address",
          "name": "",
          "type": "address"
        }
      ],
      "name": "stakedShares",
      "outputs": [
        {
          "internalType": "uint256",
          "name": "",
          "type": "uint256"
        }
      ],
      "stateMutability": "view",
      "type": "function"
    },
    {
      "inputs": [],
      "name": "totalStakedMcH",
      "outputs": [
        {
          "internalType": "uint256",
          "name": "",
          "type": "uint256"
        }
      ],
      "stateMutability": "view",
      "type": "function"
    },
    {
      "inputs": [],
      "name": "totalStakedamount",
      "outputs": [
        {
          "internalType": "uint256",
          "name": "",
          "type": "uint256"
        }
      ],
      "stateMutability": "view",
      "type": "function"
    },
    {
      "inputs": [
        {
          "internalType": "address",
          "name": "newOwner",
          "type": "address"
        }
      ],
      "name": "transferOwnership",
      "outputs": [],
      "stateMutability": "nonpayable",
      "type": "function"
    },
    {
      "inputs": [
        {
          "internalType": "uint256",
          "name": "",
          "type": "uint256"
        }
      ],
      "name": "users",
      "outputs": [
        {
          "internalType": "address",
          "name": "",
          "type": "address"
        }
      ],
      "stateMutability": "view",
      "type": "function"
    },
    {
      "inputs": [
        {
          "internalType": "address",
          "name": "",
          "type": "address"
        }
      ],
      "name": "vested",
      "outputs": [
        {
          "internalType": "uint256",
          "name": "",
          "type": "uint256"
        }
      ],
      "stateMutability": "view",
      "type": "function"
    },
    {
      "inputs": [
        {
          "internalType": "address",
          "name": "_MCHToken",
          "type": "address"
        },
        {
          "internalType": "address",
          "name": "_MCFToken",
          "type": "address"
        }
      ],
      "name": "Initialize",
      "outputs": [],
      "stateMutability": "nonpayable",
      "type": "function"
    },
    {
      "inputs": [
        {
          "internalType": "address",
          "name": "user",
          "type": "address"
        }
      ],
      "name": "showBlackUser",
      "outputs": [
        {
          "internalType": "bool",
          "name": "",
          "type": "bool"
        }
      ],
      "stateMutability": "view",
      "type": "function"
    },
    {
      "inputs": [
        {
          "internalType": "address",
          "name": "user",
          "type": "address"
        }
      ],
      "name": "addToBlackList",
      "outputs": [],
      "stateMutability": "nonpayable",
      "type": "function"
    },
    {
      "inputs": [
        {
          "internalType": "address",
          "name": "user",
          "type": "address"
        }
      ],
      "name": "removeFromBlackList",
      "outputs": [],
      "stateMutability": "nonpayable",
      "type": "function"
    },
    {
      "inputs": [
        {
          "internalType": "uint256",
          "name": "amount",
          "type": "uint256"
        }
      ],
      "name": "Approvestake",
      "outputs": [],
      "stateMutability": "nonpayable",
      "type": "function"
    }
  ],
  "bytecode": "0x608060405234801561001057600080fd5b50610ce4806100206000396000f3fe608060405234801561001057600080fd5b50600436106101585760003560e01c806367719223116100c3578063c18ef5741161007c578063c18ef5741461028d578063ce4483f9146102a0578063cfa6d6e3146102b3578063dc90fed0146102bb578063e893a8a1146102ce578063f2fde38b146102e157610158565b806367719223146102475780637102b7281461025a578063715018a61461026d578063789982c0146102755780637c5d5ad21461027d5780638da5cb5b1461028557610158565b8063365b98b211610115578063365b98b2146101de578063402914f5146101f1578063417c73a7146102045780634a49ac4c1461021757806352a342a41461022a5780635c975abb1461023257610158565b8063091b63c11461015d5780630eb0c8f31461017257806313677f941461019b5780631460fa87146101ae57806325d8dda5146101c15780632bb4cb88146101d6575b600080fd5b61017061016b366004610aa9565b6102f4565b005b610185610180366004610a3d565b6104f2565b6040516101929190610c38565b60405180910390f35b6101856101a9366004610a3d565b610504565b6101856101bc366004610a3d565b610516565b6101c9610528565b6040516101929190610ac1565b610185610537565b6101c96101ec366004610aa9565b61053d565b6101856101ff366004610a3d565b610567565b610170610212366004610a3d565b610579565b610170610225366004610a3d565b6105dc565b61018561063c565b61023a610642565b6040516101929190610b12565b610185610255366004610a3d565b61064b565b610185610268366004610a3d565b61065d565b61017061066f565b6101856106f8565b6101c96106fe565b6101c961070d565b61023a61029b366004610a3d565b61071c565b6101856102ae366004610a3d565b610780565b610185610792565b6101706102c9366004610a57565b610798565b6101856102dc366004610a3d565b610846565b6101706102ef366004610a3d565b610858565b6102fc610642565b156103225760405162461bcd60e51b815260040161031990610b63565b60405180910390fd5b600081116103425760405162461bcd60e51b815260040161031990610b8d565b60ca546040516323b872dd60e01b81526001600160a01b03909116906323b872dd9061037690339030908690600401610ad5565b602060405180830381600087803b15801561039057600080fd5b505af11580156103a4573d6000803e3d6000fd5b505050506040513d601f19601f820116820180604052508101906103c89190610a89565b5033600090815260cd60205260409020546103e39082610919565b33600090815260cd602052604081209190915560cf54610428906104079084610919565b33600090815260cd602052604090205461042290606461092c565b90610938565b33600090815260ce60205260409020549091506104459082610919565b33600090815260ce602090815260408083209390935560dd9052205460ff166104845761047133610944565b33600090815260db602052604090204290555b33600081815260de602090815260408083208054600160ff19918216811790925560dd9093529281902080549092169092179055517fc56736dcf0d4f5e82a639a9147b6843027755e445f6c6379e64fafaf677fc95f916104e6918590610af9565b60405180910390a15050565b60ce6020526000908152604090205481565b60d56020526000908152604090205481565b60cd6020526000908152604090205481565b60ca546001600160a01b031681565b60d15481565b60d8818154811061054d57600080fd5b6000918252602090912001546001600160a01b0316905081565b60d66020526000908152604090205481565b6105816109a7565b6001600160a01b031661059261070d565b6001600160a01b0316146105b85760405162461bcd60e51b815260040161031990610c03565b6001600160a01b0316600090815260d960205260409020805460ff19166001179055565b6105e46109a7565b6001600160a01b03166105f561070d565b6001600160a01b03161461061b5760405162461bcd60e51b815260040161031990610c03565b6001600160a01b0316600090815260d960205260409020805460ff19169055565b60d25481565b60655460ff1690565b60cc6020526000908152604090205481565b60d76020526000908152604090205481565b6106776109a7565b6001600160a01b031661068861070d565b6001600160a01b0316146106ae5760405162461bcd60e51b815260040161031990610c03565b6097546040516000916001600160a01b0316907f8be0079c531659141344cd1fd0a4f28419497f9722a3daafe3b4186f6b6457e0908390a3609780546001600160a01b0319169055565b60cf5481565b60cb546001600160a01b031681565b6097546001600160a01b031690565b60006107266109a7565b6001600160a01b031661073761070d565b6001600160a01b03161461075d5760405162461bcd60e51b815260040161031990610c03565b506001600160a01b038116600090815260d9602052604090205460ff165b919050565b60d46020526000908152604090205481565b60d05481565b600054610100900460ff16806107b1575060005460ff16155b6107cd5760405162461bcd60e51b815260040161031990610bb5565b600054610100900460ff161580156107f8576000805460ff1961ff0019909116610100171660011790555b60ca80546001600160a01b038086166001600160a01b03199283161790925560cb805492851692909116919091179055620e808060c9558015610841576000805461ff00191690555b505050565b60d36020526000908152604090205481565b6108606109a7565b6001600160a01b031661087161070d565b6001600160a01b0316146108975760405162461bcd60e51b815260040161031990610c03565b6001600160a01b0381166108bd5760405162461bcd60e51b815260040161031990610b1d565b6097546040516001600160a01b038084169216907f8be0079c531659141344cd1fd0a4f28419497f9722a3daafe3b4186f6b6457e090600090a3609780546001600160a01b0319166001600160a01b0392909216919091179055565b60006109258284610c41565b9392505050565b60006109258284610c79565b60006109258284610c59565b600061094f826109ab565b509050806109a35760d880546001810182556000919091527f5320ad99a619a90804cd2efe3a5cf0ac1ac5c41ad9ff2c61cf699efdad7710960180546001600160a01b0319166001600160a01b0384161790555b5050565b3390565b60008060005b60d854811015610a185760d881815481106109dc57634e487b7160e01b600052603260045260246000fd5b6000918252602090912001546001600160a01b0385811691161415610a0657600192509050610a21565b610a11600182610c41565b90506109b1565b50600080915091505b915091565b80356001600160a01b038116811461077b57600080fd5b600060208284031215610a4e578081fd5b61092582610a26565b60008060408385031215610a69578081fd5b610a7283610a26565b9150610a8060208401610a26565b90509250929050565b600060208284031215610a9a578081fd5b81518015158114610925578182fd5b600060208284031215610aba578081fd5b5035919050565b6001600160a01b0391909116815260200190565b6001600160a01b039384168152919092166020820152604081019190915260600190565b6001600160a01b03929092168252602082015260400190565b901515815260200190565b60208082526026908201527f4f776e61626c653a206e6577206f776e657220697320746865207a65726f206160408201526564647265737360d01b606082015260800190565b60208082526010908201526f14185d5cd8589b194e881c185d5cd95960821b604082015260600190565b6020808252600e908201526d63616e6e6f74206265207a65726f60901b604082015260600190565b6020808252602e908201527f496e697469616c697a61626c653a20636f6e747261637420697320616c72656160408201526d191e481a5b9a5d1a585b1a5e995960921b606082015260800190565b6020808252818101527f4f776e61626c653a2063616c6c6572206973206e6f7420746865206f776e6572604082015260600190565b90815260200190565b60008219821115610c5457610c54610c98565b500190565b600082610c7457634e487b7160e01b81526012600452602481fd5b500490565b6000816000190483118215151615610c9357610c93610c98565b500290565b634e487b7160e01b600052601160045260246000fdfea2646970667358221220b861f3e7f9dee7aded44f6144dd1dce23c1f46c6111a89e2cb7f1e13d1eff2a364736f6c63430008000033",
  "immutableReferences": {},
  "source": "// SPDX-License-Identifier: GPL-3.0\npragma solidity ^0.8.0;\n\nimport \"@openzeppelin/contracts-upgradeable/utils/math/SafeMathUpgradeable.sol\";\nimport \"@openzeppelin/contracts-upgradeable/security/PausableUpgradeable.sol\";\nimport \"@openzeppelin/contracts-upgradeable/token/ERC20/IERC20Upgradeable.sol\";\nimport \"@openzeppelin/contracts-upgradeable/security/ReentrancyGuardUpgradeable.sol\";\nimport \"@openzeppelin/contracts-upgradeable/access/OwnableUpgradeable.sol\";\nimport \"@openzeppelin/contracts-upgradeable/utils/ContextUpgradeable.sol\";\nimport \"@openzeppelin/contracts-upgradeable/proxy/utils/Initializable.sol\";\n\n/* @title Staking Pool Contract\n * Open Zeppelin Pausable  */\n\ncontract StakingpoolV2 is Initializable, ContextUpgradeable, ReentrancyGuardUpgradeable, PausableUpgradeable, OwnableUpgradeable {\n    using SafeMathUpgradeable for uint256;\n\n    uint256 StakePeriod;\n\n    IERC20Upgradeable public MCHToken;\n\n    IERC20Upgradeable public MCFToken;\n\n    /** @dev track total current stake yields of a user */\n    mapping(address => uint256) public currentstakeyields;\n\n    /* @dev track Stakedbalances of user*/\n    mapping(address => uint256) public stakedBalances;\n\n    /** @dev track StakedShares of user */\n    mapping(address => uint256) public stakedShares;\n\n    /** @dev track total staked amount of tokens of all users */\n    uint256 public totalStakedMcH;\n\n    /** @dev track MCH value */\n    uint256 public MCH;\n\n    /** @dev track MCF value */\n    uint256 public MCF;\n\n    /** @dev track total staked value of all users */\n    uint256 public totalStakedamount;\n\n    /** @dev track Daily Rate of Investment */\n    mapping(address => uint256) public DROI;\n\n    /** @dev track Monthly Rate of Investment */\n    mapping(address => uint256) public MROI;\n\n    /** @dev track Annual Rate of Investment */\n    mapping(address => uint256) public ROI;\n\n    /** @dev track claimable tokens */\n    mapping(address => uint256) public claimable;\n\n    /** @dev track vested tokens */\n    mapping(address => uint256) public vested;\n\n    /** @dev track users\n     * users must be tracked in this array because mapping is not iterable */\n    address[] public users;\n\n    /** @dev track index by address added to blacklisted */\n    mapping(address => bool) private _blackListed;\n\n    /** @dev track index by address added to users */\n    mapping(address => uint256) private userIndex;\n\n    /** @dev track stake time of users */\n    mapping(address => uint256) internal creationTime;\n\n    /** @dev track whether users has completed stake period */\n    mapping(address => bool) isFinalized;\n\n    /** @dev track staked status of users */\n    mapping(address => bool) Staked;\n\n    /** @dev track staking status of users */\n    mapping(address => bool) isStaking;\n\n    /** @dev trigger notification of staked amount\n     * @param sender       msg.sender for the transaction\n     * @param amount       msg.value for the transaction\n     */\n    event NotifyStaked(address sender, uint256 amount);\n\n    /** @dev trigger notification of unstaked amount\n     * @param sender       msg.sender for the transaction\n     * @param amount       msg.value for the transaction\n     */\n    event NotifyUnStaked(address sender, uint256 amount);\n\n    // @dev trigger notification of claimed amount\n    event Notifyclaimed(address sender, uint256 Balance);\n\n    /**\n     * @dev Throws if called before stakingperiod\n     */\n    modifier onlyAfter() {\n        require(block.timestamp >= creationTime[msg.sender].add(StakePeriod), \"StakePeriod not completed\");\n        _;\n    }\n\n    // @dev contract Initializable\n\n    function Initialize(address _MCHToken, address _MCFToken) public initializer {\n        MCHToken = IERC20Upgradeable(_MCHToken);\n        MCFToken = IERC20Upgradeable(_MCFToken);\n        StakePeriod = 11 days;\n    }\n\n    /** @dev test if user is in current user list\n     * @param user address of user to test if in list\n     * @return true if user is on record, otherwise false\n     */\n    function isUser(address user) internal view returns (bool, uint256) {\n        for (uint256 i = 0; i < users.length; i += 1) {\n            if (user == users[i]) return (true, i);\n        }\n        return (false, 0);\n    }\n\n    /** @dev add a user to users array\n     * @param user address of user to add to the list\n     */\n\n    function addUser(address user) internal {\n        (bool _isUser, ) = isUser(user);\n        if (!_isUser) users.push(user);\n    }\n\n    /** @dev remove a user from users array\n     * @param user address of user to remove from the list\n     */\n\n    function removeUser(address user) internal {\n        (bool _isUser, uint256 i) = isUser(user);\n        if (_isUser) {\n            users[i] = users[users.length - 1];\n            users.pop();\n        }\n    }\n\n    function showBlackUser(address user) external view onlyOwner returns (bool) {\n        return _blackListed[user];\n    }\n\n    function addToBlackList(address user) external onlyOwner {\n        _blackListed[user] = true;\n    }\n\n    function removeFromBlackList(address user) external onlyOwner {\n        _blackListed[user] = false;\n    }\n\n    /** @dev stake funds to PoolContract\n     */\n    function Approvestake(uint256 amount) external whenNotPaused {\n        // staking amount cannot be zero\n        require(amount > 0, \"cannot be zero\");\n\n        // Transfer Mock  tokens to this contract for staking\n        MCHToken.transferFrom(msg.sender, address(this), amount);\n\n        // updating stakedBalances\n        stakedBalances[msg.sender] = stakedBalances[msg.sender].add(amount);\n\n        // updating total stakedBalances\n        uint256 shares = (stakedBalances[msg.sender].mul(100)).div(totalStakedMcH.add(amount));\n\n        // updating stakedShares\n        stakedShares[msg.sender] = stakedShares[msg.sender].add(shares);\n\n        // Adding staker to users Array only if not staked early\n        if (!Staked[msg.sender]) {\n            addUser(msg.sender);\n\n            // storing the start stake time of user\n            creationTime[msg.sender] = block.timestamp;\n        }\n\n        // updating status of the staking\n        isStaking[msg.sender] = true;\n        Staked[msg.sender] = true;\n\n        // triggering event\n        emit NotifyStaked(msg.sender, amount);\n    }\n}\n",
  "sourcePath": "/home/lee/github/sk8er123/mcf-stakingpool/contracts/StakingpoolV2.sol",
  "compiler": {
    "name": "solc",
    "version": "0.8.0+commit.c7dfd78e.Emscripten.clang"
  },
  "schemaVersion": "3.4.0",
  "updatedAt": "2021-04-24T17:54:02.537Z",
  "devdoc": {
    "events": {
      "NotifyStaked(address,uint256)": {
        "details": "trigger notification of staked amount",
        "params": {
          "amount": "msg.value for the transaction",
          "sender": "msg.sender for the transaction"
        }
      },
      "NotifyUnStaked(address,uint256)": {
        "details": "trigger notification of unstaked amount",
        "params": {
          "amount": "msg.value for the transaction",
          "sender": "msg.sender for the transaction"
        }
      }
    },
    "kind": "dev",
    "methods": {
      "Approvestake(uint256)": {
        "details": "stake funds to PoolContract"
      },
      "owner()": {
        "details": "Returns the address of the current owner."
      },
      "paused()": {
        "details": "Returns true if the contract is paused, and false otherwise."
      },
      "renounceOwnership()": {
        "details": "Leaves the contract without owner. It will not be possible to call `onlyOwner` functions anymore. Can only be called by the current owner. NOTE: Renouncing ownership will leave the contract without an owner, thereby removing any functionality that is only available to the owner."
      },
      "transferOwnership(address)": {
        "details": "Transfers ownership of the contract to a new account (`newOwner`). Can only be called by the current owner."
      }
    },
    "stateVariables": {
      "DROI": {
        "details": "track Daily Rate of Investment "
      },
      "MCF": {
        "details": "track MCF value "
      },
      "MCH": {
        "details": "track MCH value "
      },
      "MROI": {
        "details": "track Monthly Rate of Investment "
      },
      "ROI": {
        "details": "track Annual Rate of Investment "
      },
      "Staked": {
        "details": "track staked status of users "
      },
      "_blackListed": {
        "details": "track index by address added to blacklisted "
      },
      "claimable": {
        "details": "track claimable tokens "
      },
      "creationTime": {
        "details": "track stake time of users "
      },
      "currentstakeyields": {
        "details": "track total current stake yields of a user "
      },
      "isFinalized": {
        "details": "track whether users has completed stake period "
      },
      "isStaking": {
        "details": "track staking status of users "
      },
      "stakedShares": {
        "details": "track StakedShares of user "
      },
      "totalStakedMcH": {
        "details": "track total staked amount of tokens of all users "
      },
      "totalStakedamount": {
        "details": "track total staked value of all users "
      },
      "userIndex": {
        "details": "track index by address added to users "
      },
      "users": {
        "details": "track users users must be tracked in this array because mapping is not iterable "
      },
      "vested": {
        "details": "track vested tokens "
      }
    },
    "version": 1
  },
  "userdoc": {
    "kind": "user",
    "methods": {},
    "version": 1
  }
}